{
  "contractName": "voting",
  "abi": [
    {
      "inputs": [
        {
          "internalType": "int8",
          "name": "id",
          "type": "int8"
        }
      ],
      "name": "castvote",
      "outputs": [],
      "stateMutability": "nonpayable",
      "type": "function"
    },
    {
      "inputs": [],
      "name": "result",
      "outputs": [
        {
          "internalType": "int8[3]",
          "name": "",
          "type": "int8[3]"
        }
      ],
      "stateMutability": "view",
      "type": "function",
      "constant": true
    }
  ],
  "bytecode": "0x608060405234801561001057600080fd5b50610503806100206000396000f3fe608060405234801561001057600080fd5b50600436106100365760003560e01c8063022ff85b1461003b5780636537214714610057575b600080fd5b61005560048036038101906100509190610323565b610075565b005b61005f610252565b60405161006c91906103fb565b60405180910390f35b600160003373ffffffffffffffffffffffffffffffffffffffff1673ffffffffffffffffffffffffffffffffffffffff16815260200190815260200160002060009054906101000a900460ff16156100cc57600080fd5b60018160000b03610130576001600080600381106100ed576100ec610416565b5b602091828204019190068282829054906101000a900460000b6101109190610474565b92506101000a81548160ff021916908360000b60ff1602179055506101f8565b60028160000b03610195576001600060016003811061015257610151610416565b5b602091828204019190068282829054906101000a900460000b6101759190610474565b92506101000a81548160ff021916908360000b60ff1602179055506101f7565b60038160000b036101f657600160006002600381106101b7576101b6610416565b5b602091828204019190068282829054906101000a900460000b6101da9190610474565b92506101000a81548160ff021916908360000b60ff1602179055505b5b5b60018060003373ffffffffffffffffffffffffffffffffffffffff1673ffffffffffffffffffffffffffffffffffffffff16815260200190815260200160002060006101000a81548160ff02191690831515021790555050565b61025a6102c3565b60006003806020026040519081016040528092919082600380156102b9576020028201916000905b82829054906101000a900460000b60000b815260200190600101906020826000010492830192600103820291508084116102825790505b5050505050905090565b6040518060600160405280600390602082028036833780820191505090505090565b600080fd5b60008160000b9050919050565b610300816102ea565b811461030b57600080fd5b50565b60008135905061031d816102f7565b92915050565b600060208284031215610339576103386102e5565b5b60006103478482850161030e565b91505092915050565b600060039050919050565b600081905092915050565b6000819050919050565b610379816102ea565b82525050565b600061038b8383610370565b60208301905092915050565b6000602082019050919050565b6103ad81610350565b6103b7818461035b565b92506103c282610366565b8060005b838110156103f35781516103da878261037f565b96506103e583610397565b9250506001810190506103c6565b505050505050565b600060608201905061041060008301846103a4565b92915050565b7f4e487b7100000000000000000000000000000000000000000000000000000000600052603260045260246000fd5b7f4e487b7100000000000000000000000000000000000000000000000000000000600052601160045260246000fd5b600061047f826102ea565b915061048a836102ea565b925082820190507fffffffffffffffffffffffffffffffffffffffffffffffffffffffffffffff808112607f821317156104c7576104c6610445565b5b9291505056fea26469706673582212208a1570a2a067cbea3d913c9fe1cd4b6aec168c6dccafade6c2d20a96f857857164736f6c63430008130033",
  "immutableReferences": {},
  "source": "// SPDX-License-Identifier: MIT \npragma solidity 0.8.19;\n\ncontract voting {\n    int8[3] _votes;\n\n    mapping(address=>bool) _voters;\n    function castvote(int8 id) public {\n\n          require(!_voters[msg.sender]);\n          if(id==1) {\n              _votes[0]+=1;\n              // _voters[msg.sender]=true;\n          }\n          else if(id==2) {\n              _votes[1]+=1;\n              // _voters[msg.sender]=true;\n              }\n          else if(id==3) {\n              _votes[2]+=1;\n              // _voters[msg.sender]=true;\n          }\n          _voters[msg.sender]=true;\n          \n    }\n\n    function result() public view returns(int8[3] memory) {\n        return(_votes);\n    }\n}",
  "sourcePath": "C:\\Users\\91984\\Desktop\\Voting\\contracts\\voting.sol",
  "compiler": {
    "name": "solc",
    "version": "0.8.19+commit.7dd6d404.Emscripten.clang"
  },
  "schemaVersion": "3.4.16",
  "updatedAt": "2023-12-22T08:51:13.938Z",
  "networkType": "ethereum",
  "devdoc": {
    "kind": "dev",
    "methods": {},
    "version": 1
  },
  "userdoc": {
    "kind": "user",
    "methods": {},
    "version": 1
  }
}